{
  "_format": "hh-sol-artifact-1",
  "contractName": "Exchange",
  "sourceName": "contracts/Exchange.sol",
  "abi": [
    {
      "inputs": [
        {
          "internalType": "address",
          "name": "_CryptoDevtoken",
          "type": "address"
        }
      ],
      "stateMutability": "nonpayable",
      "type": "constructor"
    },
    {
      "anonymous": false,
      "inputs": [
        {
          "indexed": true,
          "internalType": "address",
          "name": "owner",
          "type": "address"
        },
        {
          "indexed": true,
          "internalType": "address",
          "name": "spender",
          "type": "address"
        },
        {
          "indexed": false,
          "internalType": "uint256",
          "name": "value",
          "type": "uint256"
        }
      ],
      "name": "Approval",
      "type": "event"
    },
    {
      "anonymous": false,
      "inputs": [
        {
          "indexed": true,
          "internalType": "address",
          "name": "from",
          "type": "address"
        },
        {
          "indexed": true,
          "internalType": "address",
          "name": "to",
          "type": "address"
        },
        {
          "indexed": false,
          "internalType": "uint256",
          "name": "value",
          "type": "uint256"
        }
      ],
      "name": "Transfer",
      "type": "event"
    },
    {
      "inputs": [
        {
          "internalType": "uint256",
          "name": "_amount",
          "type": "uint256"
        }
      ],
      "name": "addLiquidity",
      "outputs": [
        {
          "internalType": "uint256",
          "name": "",
          "type": "uint256"
        }
      ],
      "stateMutability": "payable",
      "type": "function"
    },
    {
      "inputs": [
        {
          "internalType": "address",
          "name": "owner",
          "type": "address"
        },
        {
          "internalType": "address",
          "name": "spender",
          "type": "address"
        }
      ],
      "name": "allowance",
      "outputs": [
        {
          "internalType": "uint256",
          "name": "",
          "type": "uint256"
        }
      ],
      "stateMutability": "view",
      "type": "function"
    },
    {
      "inputs": [
        {
          "internalType": "address",
          "name": "spender",
          "type": "address"
        },
        {
          "internalType": "uint256",
          "name": "amount",
          "type": "uint256"
        }
      ],
      "name": "approve",
      "outputs": [
        {
          "internalType": "bool",
          "name": "",
          "type": "bool"
        }
      ],
      "stateMutability": "nonpayable",
      "type": "function"
    },
    {
      "inputs": [
        {
          "internalType": "address",
          "name": "account",
          "type": "address"
        }
      ],
      "name": "balanceOf",
      "outputs": [
        {
          "internalType": "uint256",
          "name": "",
          "type": "uint256"
        }
      ],
      "stateMutability": "view",
      "type": "function"
    },
    {
      "inputs": [],
      "name": "cryptoDevTokenAddress",
      "outputs": [
        {
          "internalType": "address",
          "name": "",
          "type": "address"
        }
      ],
      "stateMutability": "view",
      "type": "function"
    },
    {
      "inputs": [
        {
          "internalType": "uint256",
          "name": "_tokensSold",
          "type": "uint256"
        },
        {
          "internalType": "uint256",
          "name": "_minEth",
          "type": "uint256"
        }
      ],
      "name": "cryptoDevTokenToEth",
      "outputs": [],
      "stateMutability": "nonpayable",
      "type": "function"
    },
    {
      "inputs": [],
      "name": "decimals",
      "outputs": [
        {
          "internalType": "uint8",
          "name": "",
          "type": "uint8"
        }
      ],
      "stateMutability": "view",
      "type": "function"
    },
    {
      "inputs": [
        {
          "internalType": "address",
          "name": "spender",
          "type": "address"
        },
        {
          "internalType": "uint256",
          "name": "subtractedValue",
          "type": "uint256"
        }
      ],
      "name": "decreaseAllowance",
      "outputs": [
        {
          "internalType": "bool",
          "name": "",
          "type": "bool"
        }
      ],
      "stateMutability": "nonpayable",
      "type": "function"
    },
    {
      "inputs": [
        {
          "internalType": "uint256",
          "name": "_minTokens",
          "type": "uint256"
        }
      ],
      "name": "ethToCryptoDevToken",
      "outputs": [],
      "stateMutability": "payable",
      "type": "function"
    },
    {
      "inputs": [
        {
          "internalType": "uint256",
          "name": "inputAmount",
          "type": "uint256"
        },
        {
          "internalType": "uint256",
          "name": "inputReserve",
          "type": "uint256"
        },
        {
          "internalType": "uint256",
          "name": "outputReserve",
          "type": "uint256"
        }
      ],
      "name": "getAmountOfTokens",
      "outputs": [
        {
          "internalType": "uint256",
          "name": "",
          "type": "uint256"
        }
      ],
      "stateMutability": "pure",
      "type": "function"
    },
    {
      "inputs": [],
      "name": "getReserve",
      "outputs": [
        {
          "internalType": "uint256",
          "name": "",
          "type": "uint256"
        }
      ],
      "stateMutability": "view",
      "type": "function"
    },
    {
      "inputs": [
        {
          "internalType": "address",
          "name": "spender",
          "type": "address"
        },
        {
          "internalType": "uint256",
          "name": "addedValue",
          "type": "uint256"
        }
      ],
      "name": "increaseAllowance",
      "outputs": [
        {
          "internalType": "bool",
          "name": "",
          "type": "bool"
        }
      ],
      "stateMutability": "nonpayable",
      "type": "function"
    },
    {
      "inputs": [],
      "name": "name",
      "outputs": [
        {
          "internalType": "string",
          "name": "",
          "type": "string"
        }
      ],
      "stateMutability": "view",
      "type": "function"
    },
    {
      "inputs": [
        {
          "internalType": "uint256",
          "name": "_amount",
          "type": "uint256"
        }
      ],
      "name": "removeLiquidity",
      "outputs": [
        {
          "internalType": "uint256",
          "name": "",
          "type": "uint256"
        },
        {
          "internalType": "uint256",
          "name": "",
          "type": "uint256"
        }
      ],
      "stateMutability": "nonpayable",
      "type": "function"
    },
    {
      "inputs": [],
      "name": "symbol",
      "outputs": [
        {
          "internalType": "string",
          "name": "",
          "type": "string"
        }
      ],
      "stateMutability": "view",
      "type": "function"
    },
    {
      "inputs": [],
      "name": "totalSupply",
      "outputs": [
        {
          "internalType": "uint256",
          "name": "",
          "type": "uint256"
        }
      ],
      "stateMutability": "view",
      "type": "function"
    },
    {
      "inputs": [
        {
          "internalType": "address",
          "name": "to",
          "type": "address"
        },
        {
          "internalType": "uint256",
          "name": "amount",
          "type": "uint256"
        }
      ],
      "name": "transfer",
      "outputs": [
        {
          "internalType": "bool",
          "name": "",
          "type": "bool"
        }
      ],
      "stateMutability": "nonpayable",
      "type": "function"
    },
    {
      "inputs": [
        {
          "internalType": "address",
          "name": "from",
          "type": "address"
        },
        {
          "internalType": "address",
          "name": "to",
          "type": "address"
        },
        {
          "internalType": "uint256",
          "name": "amount",
          "type": "uint256"
        }
      ],
      "name": "transferFrom",
      "outputs": [
        {
          "internalType": "bool",
          "name": "",
          "type": "bool"
        }
      ],
      "stateMutability": "nonpayable",
      "type": "function"
    }
  ],
  "bytecode": "0x60806040523480156200001157600080fd5b50604051620029c2380380620029c2833981810160405281019062000037919062000259565b6040518060400160405280601281526020017f43727970746f446576204c5020546f6b656e00000000000000000000000000008152506040518060400160405280600481526020017f43444c50000000000000000000000000000000000000000000000000000000008152508160039080519060200190620000bb92919062000192565b508060049080519060200190620000d492919062000192565b505050600073ffffffffffffffffffffffffffffffffffffffff168173ffffffffffffffffffffffffffffffffffffffff1614156200014a576040517f08c379a00000000000000000000000000000000000000000000000000000000081526004016200014190620002ac565b60405180910390fd5b80600560006101000a81548173ffffffffffffffffffffffffffffffffffffffff021916908373ffffffffffffffffffffffffffffffffffffffff16021790555050620003e1565b828054620001a09062000313565b90600052602060002090601f016020900481019282620001c4576000855562000210565b82601f10620001df57805160ff191683800117855562000210565b8280016001018555821562000210579182015b828111156200020f578251825591602001919060010190620001f2565b5b5090506200021f919062000223565b5090565b5b808211156200023e57600081600090555060010162000224565b5090565b6000815190506200025381620003c7565b92915050565b6000602082840312156200026c57600080fd5b60006200027c8482850162000242565b91505092915050565b600062000294602683620002ce565b9150620002a18262000378565b604082019050919050565b60006020820190508181036000830152620002c78162000285565b9050919050565b600082825260208201905092915050565b6000620002ec82620002f3565b9050919050565b600073ffffffffffffffffffffffffffffffffffffffff82169050919050565b600060028204905060018216806200032c57607f821691505b6020821081141562000343576200034262000349565b5b50919050565b7f4e487b7100000000000000000000000000000000000000000000000000000000600052602260045260246000fd5b7f546f6b656e2061646472657373207061737365642069732061206e756c6c206160008201527f6464726573730000000000000000000000000000000000000000000000000000602082015250565b620003d281620002df565b8114620003de57600080fd5b50565b6125d180620003f16000396000f3fe6080604052600436106101095760003560e01c806370a08231116100955780639e7a2922116100645780639e7a2922146103ad578063a457c2d7146103d8578063a9059cbb14610415578063dd62ed3e14610452578063f0566bb71461048f57610109565b806370a08231146102ca5780637386479e1461030757806395d89b41146103445780639c8f9f231461036f57610109565b8063313ce567116100dc578063313ce567146101de578063395093511461020957806351c6590a1461024657806359bf5d39146102765780636c25a25a146102a157610109565b806306fdde031461010e578063095ea7b31461013957806318160ddd1461017657806323b872dd146101a1575b600080fd5b34801561011a57600080fd5b506101236104ab565b6040516101309190611cd2565b60405180910390f35b34801561014557600080fd5b50610160600480360381019061015b919061189b565b61053d565b60405161016d9190611cb7565b60405180910390f35b34801561018257600080fd5b5061018b610560565b6040516101989190611eb4565b60405180910390f35b3480156101ad57600080fd5b506101c860048036038101906101c3919061184c565b61056a565b6040516101d59190611cb7565b60405180910390f35b3480156101ea57600080fd5b506101f3610599565b6040516102009190611ef8565b60405180910390f35b34801561021557600080fd5b50610230600480360381019061022b919061189b565b6105a2565b60405161023d9190611cb7565b60405180910390f35b610260600480360381019061025b9190611900565b6105d9565b60405161026d9190611eb4565b60405180910390f35b34801561028257600080fd5b5061028b6107f6565b6040516102989190611eb4565b60405180910390f35b3480156102ad57600080fd5b506102c860048036038101906102c39190611952565b6108a8565b005b3480156102d657600080fd5b506102f160048036038101906102ec91906117e7565b610a05565b6040516102fe9190611eb4565b60405180910390f35b34801561031357600080fd5b5061032e6004803603810190610329919061198e565b610a4d565b60405161033b9190611eb4565b60405180910390f35b34801561035057600080fd5b50610359610af2565b6040516103669190611cd2565b60405180910390f35b34801561037b57600080fd5b5061039660048036038101906103919190611900565b610b84565b6040516103a4929190611ecf565b60405180910390f35b3480156103b957600080fd5b506103c2610d28565b6040516103cf9190611c3c565b60405180910390f35b3480156103e457600080fd5b506103ff60048036038101906103fa919061189b565b610d4e565b60405161040c9190611cb7565b60405180910390f35b34801561042157600080fd5b5061043c6004803603810190610437919061189b565b610dc5565b6040516104499190611cb7565b60405180910390f35b34801561045e57600080fd5b5061047960048036038101906104749190611810565b610de8565b6040516104869190611eb4565b60405180910390f35b6104a960048036038101906104a49190611900565b610e6f565b005b6060600380546104ba906120cc565b80601f01602080910402602001604051908101604052809291908181526020018280546104e6906120cc565b80156105335780601f1061050857610100808354040283529160200191610533565b820191906000526020600020905b81548152906001019060200180831161051657829003601f168201915b5050505050905090565b600080610548610f8d565b9050610555818585610f95565b600191505092915050565b6000600254905090565b600080610575610f8d565b9050610582858285611160565b61058d8585856111ec565b60019150509392505050565b60006012905090565b6000806105ad610f8d565b90506105ce8185856105bf8589610de8565b6105c99190611f2f565b610f95565b600191505092915050565b600080600047905060006105eb6107f6565b90506000600560009054906101000a900473ffffffffffffffffffffffffffffffffffffffff16905060008214156106bf578073ffffffffffffffffffffffffffffffffffffffff166323b872dd3330896040518463ffffffff1660e01b815260040161065a93929190611c57565b602060405180830381600087803b15801561067457600080fd5b505af1158015610688573d6000803e3d6000fd5b505050506040513d601f19601f820116820180604052508101906106ac91906118d7565b508293506106ba3385611464565b6107ea565b600034846106cd9190612010565b905060008184346106de9190611fb6565b6106e89190611f85565b90508088101561072d576040517f08c379a000000000000000000000000000000000000000000000000000000000815260040161072490611d14565b60405180910390fd5b8273ffffffffffffffffffffffffffffffffffffffff166323b872dd3330846040518463ffffffff1660e01b815260040161076a93929190611c57565b602060405180830381600087803b15801561078457600080fd5b505af1158015610798573d6000803e3d6000fd5b505050506040513d601f19601f820116820180604052508101906107bc91906118d7565b5081346107c7610560565b6107d19190611fb6565b6107db9190611f85565b95506107e73387611464565b50505b83945050505050919050565b6000600560009054906101000a900473ffffffffffffffffffffffffffffffffffffffff1673ffffffffffffffffffffffffffffffffffffffff166370a08231306040518263ffffffff1660e01b81526004016108539190611c3c565b60206040518083038186803b15801561086b57600080fd5b505afa15801561087f573d6000803e3d6000fd5b505050506040513d601f19601f820116820180604052508101906108a39190611929565b905090565b60006108b26107f6565b905060006108c1848347610a4d565b905082811015610906576040517f08c379a00000000000000000000000000000000000000000000000000000000081526004016108fd90611df4565b60405180910390fd5b600560009054906101000a900473ffffffffffffffffffffffffffffffffffffffff1673ffffffffffffffffffffffffffffffffffffffff166323b872dd3330876040518463ffffffff1660e01b815260040161096593929190611c57565b602060405180830381600087803b15801561097f57600080fd5b505af1158015610993573d6000803e3d6000fd5b505050506040513d601f19601f820116820180604052508101906109b791906118d7565b503373ffffffffffffffffffffffffffffffffffffffff166108fc829081150290604051600060405180830381858888f193505050501580156109fe573d6000803e3d6000fd5b5050505050565b60008060008373ffffffffffffffffffffffffffffffffffffffff1673ffffffffffffffffffffffffffffffffffffffff168152602001908152602001600020549050919050565b60008083118015610a5e5750600082115b610a9d576040517f08c379a0000000000000000000000000000000000000000000000000000000008152600401610a9490611e54565b60405180910390fd5b6000606385610aac9190611fb6565b905060008382610abc9190611fb6565b9050600082606487610ace9190611fb6565b610ad89190611f2f565b90508082610ae69190611f85565b93505050509392505050565b606060048054610b01906120cc565b80601f0160208091040260200160405190810160405280929190818152602001828054610b2d906120cc565b8015610b7a5780601f10610b4f57610100808354040283529160200191610b7a565b820191906000526020600020905b815481529060010190602001808311610b5d57829003601f168201915b5050505050905090565b60008060008311610bca576040517f08c379a0000000000000000000000000000000000000000000000000000000008152600401610bc190611db4565b60405180910390fd5b60004790506000610bd9610560565b90506000818684610bea9190611fb6565b610bf49190611f85565b905060008287610c026107f6565b610c0c9190611fb6565b610c169190611f85565b9050610c2233886115bb565b3373ffffffffffffffffffffffffffffffffffffffff166108fc839081150290604051600060405180830381858888f19350505050158015610c68573d6000803e3d6000fd5b50600560009054906101000a900473ffffffffffffffffffffffffffffffffffffffff1673ffffffffffffffffffffffffffffffffffffffff1663a9059cbb33836040518363ffffffff1660e01b8152600401610cc6929190611c8e565b602060405180830381600087803b158015610ce057600080fd5b505af1158015610cf4573d6000803e3d6000fd5b505050506040513d601f19601f82011682018060405250810190610d1891906118d7565b5081819550955050505050915091565b600560009054906101000a900473ffffffffffffffffffffffffffffffffffffffff1681565b600080610d59610f8d565b90506000610d678286610de8565b905083811015610dac576040517f08c379a0000000000000000000000000000000000000000000000000000000008152600401610da390611e74565b60405180910390fd5b610db98286868403610f95565b60019250505092915050565b600080610dd0610f8d565b9050610ddd8185856111ec565b600191505092915050565b6000600160008473ffffffffffffffffffffffffffffffffffffffff1673ffffffffffffffffffffffffffffffffffffffff16815260200190815260200160002060008373ffffffffffffffffffffffffffffffffffffffff1673ffffffffffffffffffffffffffffffffffffffff16815260200190815260200160002054905092915050565b6000610e796107f6565b90506000610e93343447610e8d9190612010565b84610a4d565b905082811015610ed8576040517f08c379a0000000000000000000000000000000000000000000000000000000008152600401610ecf90611df4565b60405180910390fd5b600560009054906101000a900473ffffffffffffffffffffffffffffffffffffffff1673ffffffffffffffffffffffffffffffffffffffff1663a9059cbb33836040518363ffffffff1660e01b8152600401610f35929190611c8e565b602060405180830381600087803b158015610f4f57600080fd5b505af1158015610f63573d6000803e3d6000fd5b505050506040513d601f19601f82011682018060405250810190610f8791906118d7565b50505050565b600033905090565b600073ffffffffffffffffffffffffffffffffffffffff168373ffffffffffffffffffffffffffffffffffffffff161415611005576040517f08c379a0000000000000000000000000000000000000000000000000000000008152600401610ffc90611e34565b60405180910390fd5b600073ffffffffffffffffffffffffffffffffffffffff168273ffffffffffffffffffffffffffffffffffffffff161415611075576040517f08c379a000000000000000000000000000000000000000000000000000000000815260040161106c90611d54565b60405180910390fd5b80600160008573ffffffffffffffffffffffffffffffffffffffff1673ffffffffffffffffffffffffffffffffffffffff16815260200190815260200160002060008473ffffffffffffffffffffffffffffffffffffffff1673ffffffffffffffffffffffffffffffffffffffff168152602001908152602001600020819055508173ffffffffffffffffffffffffffffffffffffffff168373ffffffffffffffffffffffffffffffffffffffff167f8c5be1e5ebec7d5bd14f71427d1e84f3dd0314c0f7b2291e5b200ac8c7c3b925836040516111539190611eb4565b60405180910390a3505050565b600061116c8484610de8565b90507fffffffffffffffffffffffffffffffffffffffffffffffffffffffffffffffff81146111e657818110156111d8576040517f08c379a00000000000000000000000000000000000000000000000000000000081526004016111cf90611d74565b60405180910390fd5b6111e58484848403610f95565b5b50505050565b600073ffffffffffffffffffffffffffffffffffffffff168373ffffffffffffffffffffffffffffffffffffffff16141561125c576040517f08c379a000000000000000000000000000000000000000000000000000000000815260040161125390611e14565b60405180910390fd5b600073ffffffffffffffffffffffffffffffffffffffff168273ffffffffffffffffffffffffffffffffffffffff1614156112cc576040517f08c379a00000000000000000000000000000000000000000000000000000000081526004016112c390611cf4565b60405180910390fd5b6112d7838383611789565b60008060008573ffffffffffffffffffffffffffffffffffffffff1673ffffffffffffffffffffffffffffffffffffffff1681526020019081526020016000205490508181101561135d576040517f08c379a000000000000000000000000000000000000000000000000000000000815260040161135490611d94565b60405180910390fd5b8181036000808673ffffffffffffffffffffffffffffffffffffffff1673ffffffffffffffffffffffffffffffffffffffff16815260200190815260200160002081905550816000808573ffffffffffffffffffffffffffffffffffffffff1673ffffffffffffffffffffffffffffffffffffffff168152602001908152602001600020600082825401925050819055508273ffffffffffffffffffffffffffffffffffffffff168473ffffffffffffffffffffffffffffffffffffffff167fddf252ad1be2c89b69c2b068fc378daa952ba7f163c4a11628f55a4df523b3ef8460405161144b9190611eb4565b60405180910390a361145e84848461178e565b50505050565b600073ffffffffffffffffffffffffffffffffffffffff168273ffffffffffffffffffffffffffffffffffffffff1614156114d4576040517f08c379a00000000000000000000000000000000000000000000000000000000081526004016114cb90611e94565b60405180910390fd5b6114e060008383611789565b80600260008282546114f29190611f2f565b92505081905550806000808473ffffffffffffffffffffffffffffffffffffffff1673ffffffffffffffffffffffffffffffffffffffff168152602001908152602001600020600082825401925050819055508173ffffffffffffffffffffffffffffffffffffffff16600073ffffffffffffffffffffffffffffffffffffffff167fddf252ad1be2c89b69c2b068fc378daa952ba7f163c4a11628f55a4df523b3ef836040516115a39190611eb4565b60405180910390a36115b76000838361178e565b5050565b600073ffffffffffffffffffffffffffffffffffffffff168273ffffffffffffffffffffffffffffffffffffffff16141561162b576040517f08c379a000000000000000000000000000000000000000000000000000000000815260040161162290611dd4565b60405180910390fd5b61163782600083611789565b60008060008473ffffffffffffffffffffffffffffffffffffffff1673ffffffffffffffffffffffffffffffffffffffff168152602001908152602001600020549050818110156116bd576040517f08c379a00000000000000000000000000000000000000000000000000000000081526004016116b490611d34565b60405180910390fd5b8181036000808573ffffffffffffffffffffffffffffffffffffffff1673ffffffffffffffffffffffffffffffffffffffff1681526020019081526020016000208190555081600260008282540392505081905550600073ffffffffffffffffffffffffffffffffffffffff168373ffffffffffffffffffffffffffffffffffffffff167fddf252ad1be2c89b69c2b068fc378daa952ba7f163c4a11628f55a4df523b3ef846040516117709190611eb4565b60405180910390a36117848360008461178e565b505050565b505050565b505050565b6000813590506117a281612556565b92915050565b6000815190506117b78161256d565b92915050565b6000813590506117cc81612584565b92915050565b6000815190506117e181612584565b92915050565b6000602082840312156117f957600080fd5b600061180784828501611793565b91505092915050565b6000806040838503121561182357600080fd5b600061183185828601611793565b925050602061184285828601611793565b9150509250929050565b60008060006060848603121561186157600080fd5b600061186f86828701611793565b935050602061188086828701611793565b9250506040611891868287016117bd565b9150509250925092565b600080604083850312156118ae57600080fd5b60006118bc85828601611793565b92505060206118cd858286016117bd565b9150509250929050565b6000602082840312156118e957600080fd5b60006118f7848285016117a8565b91505092915050565b60006020828403121561191257600080fd5b6000611920848285016117bd565b91505092915050565b60006020828403121561193b57600080fd5b6000611949848285016117d2565b91505092915050565b6000806040838503121561196557600080fd5b6000611973858286016117bd565b9250506020611984858286016117bd565b9150509250929050565b6000806000606084860312156119a357600080fd5b60006119b1868287016117bd565b93505060206119c2868287016117bd565b92505060406119d3868287016117bd565b9150509250925092565b6119e681612044565b82525050565b6119f581612056565b82525050565b6000611a0682611f13565b611a108185611f1e565b9350611a20818560208601612099565b611a298161218b565b840191505092915050565b6000611a41602383611f1e565b9150611a4c8261219c565b604082019050919050565b6000611a64603e83611f1e565b9150611a6f826121eb565b604082019050919050565b6000611a87602283611f1e565b9150611a928261223a565b604082019050919050565b6000611aaa602283611f1e565b9150611ab582612289565b604082019050919050565b6000611acd601d83611f1e565b9150611ad8826122d8565b602082019050919050565b6000611af0602683611f1e565b9150611afb82612301565b604082019050919050565b6000611b13602383611f1e565b9150611b1e82612350565b604082019050919050565b6000611b36602183611f1e565b9150611b418261239f565b604082019050919050565b6000611b59601a83611f1e565b9150611b64826123ee565b602082019050919050565b6000611b7c602583611f1e565b9150611b8782612417565b604082019050919050565b6000611b9f602483611f1e565b9150611baa82612466565b604082019050919050565b6000611bc2601083611f1e565b9150611bcd826124b5565b602082019050919050565b6000611be5602583611f1e565b9150611bf0826124de565b604082019050919050565b6000611c08601f83611f1e565b9150611c138261252d565b602082019050919050565b611c2781612082565b82525050565b611c368161208c565b82525050565b6000602082019050611c5160008301846119dd565b92915050565b6000606082019050611c6c60008301866119dd565b611c7960208301856119dd565b611c866040830184611c1e565b949350505050565b6000604082019050611ca360008301856119dd565b611cb06020830184611c1e565b9392505050565b6000602082019050611ccc60008301846119ec565b92915050565b60006020820190508181036000830152611cec81846119fb565b905092915050565b60006020820190508181036000830152611d0d81611a34565b9050919050565b60006020820190508181036000830152611d2d81611a57565b9050919050565b60006020820190508181036000830152611d4d81611a7a565b9050919050565b60006020820190508181036000830152611d6d81611a9d565b9050919050565b60006020820190508181036000830152611d8d81611ac0565b9050919050565b60006020820190508181036000830152611dad81611ae3565b9050919050565b60006020820190508181036000830152611dcd81611b06565b9050919050565b60006020820190508181036000830152611ded81611b29565b9050919050565b60006020820190508181036000830152611e0d81611b4c565b9050919050565b60006020820190508181036000830152611e2d81611b6f565b9050919050565b60006020820190508181036000830152611e4d81611b92565b9050919050565b60006020820190508181036000830152611e6d81611bb5565b9050919050565b60006020820190508181036000830152611e8d81611bd8565b9050919050565b60006020820190508181036000830152611ead81611bfb565b9050919050565b6000602082019050611ec96000830184611c1e565b92915050565b6000604082019050611ee46000830185611c1e565b611ef16020830184611c1e565b9392505050565b6000602082019050611f0d6000830184611c2d565b92915050565b600081519050919050565b600082825260208201905092915050565b6000611f3a82612082565b9150611f4583612082565b9250827fffffffffffffffffffffffffffffffffffffffffffffffffffffffffffffffff03821115611f7a57611f796120fe565b5b828201905092915050565b6000611f9082612082565b9150611f9b83612082565b925082611fab57611faa61212d565b5b828204905092915050565b6000611fc182612082565b9150611fcc83612082565b9250817fffffffffffffffffffffffffffffffffffffffffffffffffffffffffffffffff0483118215151615612005576120046120fe565b5b828202905092915050565b600061201b82612082565b915061202683612082565b925082821015612039576120386120fe565b5b828203905092915050565b600061204f82612062565b9050919050565b60008115159050919050565b600073ffffffffffffffffffffffffffffffffffffffff82169050919050565b6000819050919050565b600060ff82169050919050565b60005b838110156120b757808201518184015260208101905061209c565b838111156120c6576000848401525b50505050565b600060028204905060018216806120e457607f821691505b602082108114156120f8576120f761215c565b5b50919050565b7f4e487b7100000000000000000000000000000000000000000000000000000000600052601160045260246000fd5b7f4e487b7100000000000000000000000000000000000000000000000000000000600052601260045260246000fd5b7f4e487b7100000000000000000000000000000000000000000000000000000000600052602260045260246000fd5b6000601f19601f8301169050919050565b7f45524332303a207472616e7366657220746f20746865207a65726f206164647260008201527f6573730000000000000000000000000000000000000000000000000000000000602082015250565b7f416d6f756e74206f6620746f6b656e732073656e74206973206c65737320746860008201527f616e20746865206d696e696d756d20746f6b656e732072657175697265640000602082015250565b7f45524332303a206275726e20616d6f756e7420657863656564732062616c616e60008201527f6365000000000000000000000000000000000000000000000000000000000000602082015250565b7f45524332303a20617070726f766520746f20746865207a65726f20616464726560008201527f7373000000000000000000000000000000000000000000000000000000000000602082015250565b7f45524332303a20696e73756666696369656e7420616c6c6f77616e6365000000600082015250565b7f45524332303a207472616e7366657220616d6f756e742065786365656473206260008201527f616c616e63650000000000000000000000000000000000000000000000000000602082015250565b7f5f616d6f756e742073686f756c642062652067726561746572207468616e207a60008201527f65726f0000000000000000000000000000000000000000000000000000000000602082015250565b7f45524332303a206275726e2066726f6d20746865207a65726f2061646472657360008201527f7300000000000000000000000000000000000000000000000000000000000000602082015250565b7f696e73756666696369656e74206f757470757420616d6f756e74000000000000600082015250565b7f45524332303a207472616e736665722066726f6d20746865207a65726f20616460008201527f6472657373000000000000000000000000000000000000000000000000000000602082015250565b7f45524332303a20617070726f76652066726f6d20746865207a65726f2061646460008201527f7265737300000000000000000000000000000000000000000000000000000000602082015250565b7f696e76616c696420726573657276657300000000000000000000000000000000600082015250565b7f45524332303a2064656372656173656420616c6c6f77616e63652062656c6f7760008201527f207a65726f000000000000000000000000000000000000000000000000000000602082015250565b7f45524332303a206d696e7420746f20746865207a65726f206164647265737300600082015250565b61255f81612044565b811461256a57600080fd5b50565b61257681612056565b811461258157600080fd5b50565b61258d81612082565b811461259857600080fd5b5056fea264697066735822122002719ef5cbc29faadb2a8ee433e7eed720ec4c1e7a82282bd91a59312bb0082164736f6c63430008040033",
  "linkReferences": {},
  "deployedLinkReferences": {}
}